:020000040800F2
:1000000000A000204DBE01088952010829A801085E
:100010008752010885520108835201080000000040
:1000200000000000000000000000000081520108F4
:100030007F520108000000007D5201082D2E0108AA
:10004000B5BE0108B5BE0108B5BE0108B5BE0108C0
:10005000B5BE0108B5BE01085D1A0108711A010894
:100060006D1A0108691A0108651A010801400008A3
:10007000F13F0008E13F0008D13F0008C13F000800
:10008000AD3F0008993F0008B5BE0108B5BE0108A4
:100090001D4B0108B5BE0108B5BE0108611A010873
:1000A000F92B0108492C0108B5BE0108392C0108BB
:1000B0002D2C01081D2C0108B5BE0108B5BE010894
:1000C000B5BE0108B5BE0108B5BE0108B5BE010840
:1000D000B5BE0108913E0008853E0008793E000843
:1000E000591A0108B5BE01080D4B0108B5BE01083B
:1000F000192C0108B5BE0108092C0108B5BE01087C
:10010000000000000000000000000000B5BE010873
:10011000B5BE0108B5BE0108B5BE0108B5BE0108EF
:10012000853F0008713F00085D3F0008493F000817
:10013000353F0008B5BE01080000000000000000C7
:10014000B5BE0108B5BE0108B5BE0108000000003B
:10015000000000000000000000000000000000009F
:100160000000000000000000B5BE0108B5BE010897
:10017000B5BE010800000000000000000000000003
:0801800000000000B5BE0108FB
:100188002DE9F04FA34BA44A2DED068B1A60A34B23
:10019800B1B000221A600BF0F5F818B90BF05AFD4F
:1001A8000BF014F90BF0AEF99D4A137843F00103F4
:1001B80013709C4A9C4B116899424FF0000309D177
:1001C800136062B6994B1B6883F30888984B1B68C9
:1001D8009847FEE7974A984C4FF47001C2F8881088
:1001E8000C930D93236843F480332360236803F44E
:1001F80000330D930C9B01330C930D9B1BB90C9B87
:10020800B3F5A04FF2D1236813F4003318BF0123CC
:100218000D930D9B012B52D0DFF81892874F884B16
:10022800C9F80C30B846666A48F8046B636A43F04C
:1002380080736362636943F4FC0330AD6361032335
:100248008DF8723041F6FF7325F8503D4FF090401D
:10025800294603F01FFE4FF6FF7329467948ADF88B
:10026800703003F017FE2946774803F013FE29463D
:10027800764803F00FFE2946754803F00BFE294621
:10028800744803F007FE28460CF039F91C9B724AA3
:10029800B3FBF2F3714A72491360724ADFF8F0E176
:1002A80000237B60C8F804305160F02189F82310DE
:1002B800072193604FF0010C11606B4928E06B4BEC
:1002C80012221A606368636063686360636843F45A
:1002D80080636360636823F47C136360636843F43A
:1002E800E8136360236843F0807323602268524BED
:1002F8009501FBD55A6822F003025A605A6842F009
:1003080002025A60636803F00C03082BFAD183E7F2
:1003180098023EF8135000F19040002245FA02F886
:1003280018F0010F18BF0CFA02F802F101021EBF03
:100338000860A1F804800C31102AEFD10133062B94
:10034800E6D14B4D4B4B95F8E721DFF848911A70F1
:100358000020AB68C9F8003018F070FB464A92F8E4
:1003680000B000234FF0170A0BEB0301434A52F881
:10037800210003F1010840B1022380F806A0C371EF
:1003880080F80880012111F023FA4346032BEBD1B2
:10039800002018F053FBA3693948DFF8A08043F028
:1003A8000103A361402200211EF0DAF94FF0FF3368
:1003B800FB60C8F80F30D9F800301C0711D595F844
:1003C8004832012B0DD816F0805600F03F8508E022
:1003D80093F84B22012A04D1002283F84A220BF019
:1003E80039FA642012F014FDC82200212548264E4F
:1003F8001EF0B6F90024B046A1590023234850F84E
:10040800330081424FEAC30246D108EB020393F856
:10041800940045E0002F002029610108042F0020E6
:1004280065500020FC9F0020EFBEADDE00D8FF1F06
:1004380004D8FF1F00ED00E000100240A8060020CD
:100448000005FA050004004800080048000C0048B0
:10045800001000480014004840420F009C2600206D
:100468003F19010010E000E0603200200020024047
:10047800303400203A160020C4130208C8130208BA
:10048800101400201C250020BCE801084CE90108D4
:10049800660A0208AC1A002001330A2BAED10020EC
:1004A8000C3418F05DF9902CA6D1A04C04F19006FC
:1004B800207911F0FDF80C3414F8032C14F8041CFE
:1004C80011F04AF9A642F3D1994BD9F80040DFF868
:1004D8008C92DFF88C82C3F80090964B04221A7035
:1004E8000021302240461EF03BF9142388F80030E2
:1004F8000223012188F824308F4B88F8181095F8CA
:1005080005808E4883F80080A9F529737B61A9F5D9
:10051800E6730360A00658BF894B8A4A57BF03EBAE
:10052800C80391615B789361874A04F04006002311
:1005380040F2DC5122F813100133082BFAD11A22A9
:10054800002115A81EF00CF9B8F10E0F03D008F021
:10055800EF03082B02D101238DF8663002200EF03C
:100568002FF918B14088003018BF0120C4F34003A8
:100578008DF85C30C4F3403300368DF85430C4F342
:10058800C03318BF012600F001008DF8573014F46D
:1005980000638DF85A008DF85E6004D095F81E321D
:1005A8005A1E534253418DF85830C4F300438DF816
:1005B8005F30C4F3C0038DF85630BB69003318BFF1
:1005C80001238DF86030C4F300538DF86130B5F81D
:1005D800D230ADF86430B5F8E030ADF8623095F857
:1005E800E33004F001088DF8558004F0080643B99B
:1005F800564B93F8E23013F0FB0F0CBF0123002396
:1006080000E0012395F8E220059312F0FB0F14BFD8
:10061800012100218DF85D108DF8672013B14B4B37
:10062800B3F8DE30ADF86830B5F8D030ADF86A30E0
:10063800E30442BF454BB3F8DA30ADF86A30042A18
:1006480006D14FF480500AF077FE0023ADF86A30E7
:100658003F4B95F894221A70002164223D481EF001
:100668007FF89DF86630002B14BF02220022B8F1F3
:10067800000F00D106B101322C4B2C4E354C03EB48
:100688008203D3F8E0309A1E1633069300230392B0
:1006980002930493039B33F802BF03934FF6FF734F
:1006A8009B4500F0B6819DF85A305FFA8BF03BB15C
:1006B8000C2303FB00631B792A3B012B40F2A48126
:1006C8009DF85F305BB10C234343F218F158224B7D
:1006D800994200F099811379182B00F095819DF8C3
:1006E8005C3033B10C2303FB00631B79142B00F03F
:1006F8008B819DF8573033B10C2303FB00631B79C2
:10070800222B00F081819DF8583033B10C2303FB74
:1007180000631B79152B00F077814FEA1B2BBBF187
:10072800020F1FD19DF8543021E000BFBCE801083A
:100738007821002004110020880F00206026002066
:10074800D8F00108A8060020B0100020303400209E
:100758006B23002008110020002C0140E036002007
:1007680080210020BBF1010F04D19DF85530002BEA
:1007780000F04A810C239DF860204343F51852B1DC
:100788009DF866203AB9C21F012A04D8F258B74B1F
:100798009A4200F01B81BBF1010F5FFA8BF347D13E
:1007A8004FF00C0A0AFB00FAB14BDFF8D48203EBD6
:1007B8000A0953F80A3002930027AE4B99F804004F
:1007C80088F81C70FF22C8F828501F705F609F606F
:1007D800DF601F6483F8442083F8452083F846705F
:1007E80083F8477083F8487010F062FF0222827124
:1007F80080F807B0077299F8081010F0E9FF3A4638
:1008080099F80510029810F09BFE284610F044FB5A
:10081800994BC8F82C30994BC8F83030C8F8347068
:1008280008F1300208F12C01284612F00BFAEBE02F
:10083800022B48D19DF81020914B09931C274FF0AB
:100848000C0A57430AFB00FA03EB070806EB0A0BEE
:100858004FF00009012188F81D2088F81C109BF82A
:10086800040088F81E9088F82690C8F82850089246
:10087800079110F01DFF089A079981710132C17123
:1008880002729BF8081010F0A3FF4A469BF8051067
:1008980056F80A0010F054FE284610F0FDFA099B9D
:1008A800784AC8F82C201F44774AC8F8302007F146
:1008B8002C01C8F834900A1D284612F0C3F9049B8D
:1008C80001330493A0E0032B7ED19DF855309DF8A9
:1008D8006720C3B1BAB14FF00C0A0AFB00FA644BA7
:1008E800029953F80A3099420DD1531E032B0AD8A6
:1008F800DFE803F002060406082102E0482100E0D0
:100908001821624B19709DF85D30BDF868004BB333
:10091800022A94F8019007D05D4B5E4F032A16BF58
:100928001F464822082201E05B4F1822D1B2DFF8A7
:10093800748138B1594B5A43BDF86A30B2FBF0F2B2
:1009480092B202E003464FF6FF72284610F066FFA7
:1009580048F8290058F82930DF60A378192204EBF9
:10096800C30327E0042A677811D14D4AB2FBF0F29D
:10097800182192B2284610F051FF4A4B43F827003D
:10098800494BC360A3780D2204EBC30312E0BDF802
:100998006A30424AB2FBF0F2012192B2284610F0C6
:1009A8003DFF404B43F82700404BC360A378092222
:1009B80004EBC3035A71A378627804EBC3010A718C
:1009C80001328D6062701DE0042B1DD1A378277859
:1009D800BDF8622004EBC30301211F7128462F4B89
:1009E80093FBF2F2BDF8643092B210F017FF304B6F
:1009F80043F82700A37804EBC3020A215171227837
:100A0800013222700133A370069B039A93427FF44C
:100A180041AE059B274E83F00102274B1A70274BE6
:100A28001D78A5F117030024022B34704AD8DFF88B
:100A380050C0DFF88CE0DCF814302344D3ED007AA2
:100A4800F5EE407AF1EE10FA04D10D4CA369002BB3
:100A580058D150E00FCB04EB0E0787E80F0033782E
:100A680010340133C02C3370E5D1EEE700040040A8
:100A7800BCE801081C23002071110108CD120108EF
:100A8800A80600204916010849110108240600207B
:100A9800911301082D1301086513010840420F0046
:100AA80000366E01D02400200D130108FD12010844
:100AB8006C230020E316002018250020880F002052
:100AC800A80E00209A4B13F835E086F800E003EBF7
:100AD800C503D3F804C0BCF1000FB6D0DFF890828C
:100AE8007445B2DA230103EB080763440FCB0134E2
:100AF80087E80F00F4E78F4B02931A6812F4805FBF
:100B080026D11FE08C4B8D4A13F83500107003EB8B
:100B1800C5035F68002FEED0DFF858E20023834258
:100B2800E9DAC3EBC3017A1801EB0E0CD2F80080A6
:100B380041F80E809188ACF8041092798CF8062060
:100B48000133ECE705F0EF03082B7D4B1FD120E0C4
:100B58003278012AF6D97B4B03EB02121032F6EEFB
:100B6800007A10339A42EDD013ED047A27EE277AF3
:100B780003ED047A13ED057A27EE277A03ED057A5B
:100B880013ED037A27EE277A03ED037AE9E70E2DB2
:100B980008D11A7842F010021A70182D08D111F0F5
:100BA80067FF05E01A7822F010021A70192DF5E790
:100BB800654D11F03FFF2B783F2043F004032B7065
:100BC80010F076FD614A03951060614A01211170A9
:100BD80038B1112282710222C2710022027210F011
:100BE800F7FD002012F026F900200AF08FFA012004
:100BF8000AF08CFA262010F05BFD0746272010F03B
:100C080057FD544D0646752017F0AAFD2B6B23F0AF
:100C180010032B632B6B43F010032B634FF0010879
:100C28004FF00D09092387F80690FB7187F80880B3
:100C3800384604221E2110F08FFD0A2386F80690FC
:100C4800F37186F80880304604221E2110F084FDD6
:100C5800414B424E1A6822F001021A601968404A54
:100C68000A401A603F4A1A611A68002142EA0802DB
:100C78001A609960D96099609A6842F400429A6053
:100C88001A681A605A6822F0784222F400425A60C0
:100C98001A6822F400321A601A6842EA08021A60D6
:100CA800029B1427D3F800A03A4630461DF058FDA1
:100CB8000AF400491AF0020F0AF40068304618BF17
:100CC8003770B9F1000F01D022237371B8F1000F0A
:100CD80001D01523C373244FDFF89CA04FF00F09F0
:100CE80000264FF0060817F8010C002852D010F023
:100CF800DFFC4FF0000B80F8068080F8079080F842
:100D080008B017F8010C10F0D3FC132110F060FDA7
:100D180017F8011C5B46154810F8130088424FEA83
:100D280043022BD10AEB020393F8F1302AE000BF0B
:100D3800D8F00108AC1A0020F4EF0108EC250020D7
:100D480014130020B00E002065500020A0260020BB
:100D5800A426002000100240005400401C16002069
:100D6800FFE0CF00300E50001D160020ACE901084E
:100D7800A80E0020ED250020BCE801080133272B30
:100D8800C9D1002307223B70FA70731C01227E70C0
:100D9800BA70DEB209F101095FFA89F9B9F1130FE6
:100DA80007F105079FD1EB6A23F4F873EB62EB6A4E
:100DB80043F4D873EB623C2017F0D2FC212017F0E3
:100DC800CFFC7E487D4D0BF0DCFA1CA80BF0AEFA88
:100DD8007B4B1C937B4B1D93022E4FF0000334BFBB
:100DE8001A46802221924FF4807222924FF4806238
:100DF80023922022284624921CA94FF400521E93C5
:100E0800209325922693ADF87C600BF09CFA2B6812
:100E180043F001032B606C4DAB6823F04053AB608B
:100E2800AB6843F08053AB600A2011F0F1FFAB6868
:100E380023F08043AB60AB68AB60AB6843F0004322
:100E4800AB60AB68604A002B38DAFAE75F4B93F87F
:100E58004A32013B092B3FF6C4AA2B2010F028FC8C
:100E6800182383710223C371044606720121C8F84E
:100E7800AC0410F0ADFC2046012110F047FC3C20EA
:100E880011F0C6FF95F84A22504B9642BFF6A0AA29
:100E9800002017F0D3FD0021204610F037FC782001
:100EA80011F094FF012017F0C9FD0121204610F030
:100EB8002DFC782011F08AFF0136E3E79368444956
:100EC80023F040539360936843F00053936088681D
:100ED800404B034043F468338B60D1683E4B3F4836
:100EE8000B4043F40053D360136B013E23F00F0310
:100EF8001E43166300F1140801234FF0380C4FF01D
:100F0800070B4FF0060E1F25C178002978D05E1C0C
:100F1800042B41780779F6B20ED803EB4303D2F8D5
:100F280030905B0005FA03FA29EA0A0901FA03F38B
:100F380043EA090313632FE0092B0ED8053BD2F8C7
:100F480034900EFB03F305FA03FA29EA0A0901FAB9
:100F580003F343EA090353631EE00E2B0ED80A3B42
:100F6800D2F838900EFB03F305FA03FA29EA0A09C6
:100F780001FA03F343EA090393630DE00F3BD2F848
:100F88003C900EFB03F305FA03FA29EA0A0901FA71
:100F980003F343EA0903D363092921D90A39936979
:100FA800936901EB41010BFA01F923EA0903936103
:100FB800936907FA01F11943916120E0080402409E
:100FC800400100503016002000010050303400204D
:100FD80000030050E010FCFF07C0FFFD1C160020B6
:100FE80001395369536901EB41010CFA01F923EA0C
:100FF80009035361536903318F401F4357613346D7
:101008000530804580D1BA4B9A6842F001029A6057
:101018001A461168B64BCF07FBD5DA68B54D22F0F2
:101028000202DA60DA6842F00202DA60DA6842F054
:101038000102DA609A6842F004029A60D5F8C83171
:10104800002B41F04381D5F8CC21002A41F03E81A4
:10105800D5F8D021002A41F03981029B1B689E03F4
:101068001BD5C82011F0D4FEAE2019F0DEFE08B161
:1010780016F07CFAA04E84F8FC00C82011F0C8FED7
:10108800002333607360B3600223F37013F047F9F1
:1010980011F080FE994B0344B36095F8E93195F857
:1010A800D5A1049395F8EA71B5F8D831B5F9EC9162
:1010B80095F8DA81924D934E934805934FF0000BC3
:1010C80018225946C5F800B0C5F804B0C5F808B0EC
:1010D8001DF046FB18225946A4F8FDB006F58070AD
:1010E8001DF03EFB894BC4F81831232011F090FE07
:1010F8000DF12F020121752001F0F4FDB0B1844BF0
:10110800C6F80431834BC6F808310EAA43230121DF
:10111800584686F8003101F0E5FD9DF8383003F0B7
:101128007E038DF83830002842D14AE096F81CB189
:10113800BBF1000F22D1292010F0BAFA14228271D3
:101148000E22C27180F808B00D21C6F8200110F0F7
:101158003FFB714A138823F040031B041B0C1380C8
:10116800138823F038031B041B0C138013889BB2CD
:1011780043F040031380012386F81C311CAA012187
:10118800752001F0BFFD9DF87030A3F17002012AAF
:1011980001D9AF2B5DD1052384F8FD30432384F8B2
:1011A80000315E4BC4F804315D4BC4F8083150E09F
:1011B800682B06D1012386F8FD301D2386F80031FF
:1011C80047E09DF82F3003F07E03682B8DF82F3011
:1011D8003AD10223062184F8FD301CAAD4F8043140
:1011E800084698479DF875209DF8733092005B007B
:1011F80003F0020302F004021A439DF8713003F071
:101208000103134311D0012B01D1002302E0022B6B
:1012180003D1012384F8FE301BE003F00303032B02
:10122800F7D0032011F014FE13E0364B10AAD3F8C0
:10123800043101210C2098479DF8403013F00F032A
:10124800EFD0042BE5D1E0E7702B04BF042384F82A
:10125800FD30344A94F8FD0000231370031F012B5E
:1012680000F2BE81284B3049196030495960304935
:10127800D9603049196103232F49137007230B7074
:101288002E4B1A6842F001061E604FF0010C5346BF
:101298000B2B28BF00230CFA03FE40F202660EEA6D
:1012A8000606B6B940F2FD160EEA06068EB1042807
:1012B8000DD1134B2248186022485860224B032056
:1012C800187008234B701D4B02431A6008E005286C
:1012D800EFD0012B4FF0000AD9D81B4B83F800A0A0
:1012E800042F67D8DFE807F0326F3232320000BFD0
:1012F80000010050303400206C240020404B4C008A
:10130800241B0020A8060020CC150020FAE90108BB
:10131800ED2C0008032D0008003001400D2D0008B9
:101328008D2E0008780D0020FD2F00085527000895
:101338003F27000890C1793D95050020201B00201B
:10134800A13000089D270008304F002094F8247130
:10135800874E002F40F0B787142011F059FD06F290
:1013680025130122D021762017F084FA96F825312A
:10137800582B28D106F5947318228821762017F067
:1013880079FA3122F421762017F008FA012386F839
:101398002431784B784A9A60784A5A6045F6D812D0
:1013A8005A80774ADA60774A1A61774A1F805A6109
:1013B80000F089BF012F06D0744B754A9F701368DF
:1013C80043F004031360724E3368980705D57148DB
:1013D8004FF48073038103689847059B13F0FF005F
:1013E80007D0072816BF4FF47A737D234FF0010802
:1013F80000E07D2308F1FF3284F84421664C03FBAA
:1014080008F3636123689847644B1A78984622B9B1
:10141800049C634B4FF000023BE06369002BF7D05C
:10142800DFF8B8B10027A246BBF800305D48616913
:1014380000EE103A5C4B0122D3ED000AB8EE400AE8
:10144800384415F02CFB594A1278012A0CD198F827
:1014580000305748DAF8141000EE103A3844B8EE65
:10146800400A15F083FB0AE0DAED057A9FED517A20
:10147800514AF8EE677A67EE877AC2ED007A1C3730
:10148800542FD1D1C4E7A11E022906D9012C3DD978
:1014980000241A70424F002CF5D14FF000080DF1CE
:1014A800C00A102137200AF8508D01F0EBFC0A2001
:1014B80011F0AEFC0D21242001F0E4FC0A2011F00B
:1014C800A7FC30216A2001F0DDFC0A2011F0A0FC05
:1014D80052460121002017F027FB002800F06787FB
:1014E8009DF87030482B0ED1344B354A1A60354A76
:1014F8005A6006233B70254B0422DA70336843F0A8
:101508000803336002E0002000F051BF2E4B93F82F
:10151800C5210AB12D490A7093F8C6210AB12C4990
:101528000A7093F8C73103B13B703368294913F047
:10153800080F19D0642299FBF2F302FB13990FFAF2
:1015480089F907EE909AB8EEE77A07EE903ADFED60
:10155800226AF8EEE77AE7EE267AB2EE047A67EEC8
:10156800877AC1ED007A3EE000230B603BE000BFC4
:10157800A8060020883000203D270008C93600084A
:10158800F92C0008A12C00088525000895050020E5
:10159800201B0020241B0020CC15002090140020C4
:1015A800EC3100204C0E00209814002094140020E8
:1015B800D00D0020BD378635240E0020D8310020FC
:1015C800CD2B0008752D000830340020780D002040
:1015D800304F0020204F00208988883C921400203A
:1015E800012011F035FC039B039A1B78BC4E43F095
:1015F80002030020137017F021FA0A2417F011FAD9
:10160800192011F005FCD6F8B035B54F13F4803F1A
:1016180002D1012011F00EFC192011F0F9FB002075
:1016280011F008FC013CE9D1AE4E204617F006FA4D
:101638003368190705D5AC4B1B689847AB4B01229B
:101648001A70AB4B9FEDAB8A1B681B7B00EE103A00
:10165800B8EEC00A20EE080A15F0F6F9A64B9FED81
:10166800A77A83ED000AA64BD3ED047AA54B67EE63
:10167800887AC3ED007A2B89A34D07EE903AF8EEED
:10168800E77AA24BC7EE276A9FEDA17AC6EE877A62
:10169800C3ED007A11F02EFA1E22FF2128461DF014
:1016A8005FF89C4B01221A7000222A70029A116876
:1016B80011F4800F01BF02221A701B226A7028469B
:1016C8003568AA0708D51A7801268654961C01326F
:1016D800D2B21E70022686546E0704D51A78561C9C
:1016E8001E700326865415F00A0F0CD01A780425AC
:1016F8008554551CEDB205264655D51C0232D2B28A
:101708001D70062585540D0608D51A7809258554B7
:10171800951C0132D2B21D700A258554CA0504D51C
:101728001A78551C1D701A2585547D79082D01D00D
:101738000E2D04D11A78561C1E700B2686541A7862
:10174800561CF6B24FF00C0E11F4803F1E7000F8D4
:1017580002E009D0DFF8BCE102328EF800206A4AC4
:101768004FF00E0E02F806E00A0304D51A78561C4C
:101778001E70192686541A78561CF6B24FF01D0EA4
:1017880011F4805F1E7000F802E009D0DFF884E1F0
:1017980002328EF800205C4A4FF01C0E02F806E078
:1017A8008E0604D51A78561C1E70072686544A07DA
:1017B80004D51A78561C1E70102686544E0304D57C
:1017C8001A78561C1E70122686544A0507D597F8B3
:1017D800D42222B11A78511C197013218154182D62
:1017E8000BD11A7816218154511CC9B217264654B8
:1017F800D11C0232D2B21970855498220021464871
:10180800DFF83C81454D1CF0ABFF0FF049F9444B24
:10181800444A1A60444BB7F8DC1019804349DFF892
:1018280018C100230B808B7041490A60414A13702C
:10183800B7F8502211B2DCF8000028F8131000F5B0
:10184800967045F823000133122BDFF8F4E03A4E86
:10185800F1D13A4D2868C30458BFB7F95C12AEF805
:1018680006101F4901F1500C91F8FF34FBB991F8AB
:10187800018591F80235984519D2B8F1000F08D0C2
:1018880008F1FF3808EB880808EB880808F5617349
:1018980006E0013303EB830303EB830303F5617372
:1018A80091F8008508F104089BB22EF8183004312D
:1018B8008C45D9D1030740F1578197F84812082978
:1018C80000F24C81DFE811F009003E004500760087
:1018D8009700B800B800FB00220145F2F05233E04F
:1018E80030340020201B0020D83100200032002096
:1018F800C814002035FA8E3C244F00200AE81C4109
:10190800CC150020104F0020EE1A0020B431002022
:1019180000401C46ED1A0020B0210020E0110020F4
:101928005C120020703600205A120020B81A0020DD
:10193800A81A0020281200203C2E0020AC1A0020F3
:101948005822002042F6F822AD4B1A800FF054FAC4
:1019580003E1AB4B42F6F8211980AA490A23120188
:1019680092FBF3F20023A2F5B06241F82320013381
:10197800122BFAD1A44AA5491160A54A4020137038
:101988000CF05CFF8046002800F0E88019F022F98E
:1019980097F8493298F900E0002B0CBF062207227D
:1019A80000280CBF01230323019200930746994B9B
:1019B800994AA3E0924B42F6F8221A80924B974A32
:1019C8001A60934B102240201A700CF037FF07461C
:1019D800002800F0C38019F0FDF8002200280CBF91
:1019E8000123032397F900E00192009307464FF47F
:1019F800E1338B4A82E0824B42F6F8221A80824B0E
:101A0800884A1A60824B082240201A700CF016FF90
:101A18000746002800F0A28019F0DCF80022002810
:101A28000CBF0123032397F900E0019200930746B6
:101A38004FF4E1337C4A61E0714BDFF84092DFF804
:101A48004082DFF840C2DFF840E2784F784842F63B
:101A5800F8221A806E4A0C23137006294FF00002F0
:101A680089F8002088F800208CF8002008D01B2274
:101A78003B7005238EF8002003704FF4E13806E030
:101A88002122DFF808828EF800203B7001705E4B3F
:101A9800684A1A6040200CF0D1FE074600285DD045
:101AA80019F098F8002200280CBF0123032397F9A6
:101AB80000E001920093074643465F4A1EE0504B00
:101AC80044F620621A80504B5C4A1A60504B0A2236
:101AD80040201A700CF0B2FE074600283ED019F0DC
:101AE80079F8002297F900E0019200280CBF012341
:101AF8000323534A009307464FF4E13340217046CD
:101B08000CF05CFD37B34F4B186023E03C4B41F2BF
:101B18007C521A803C4B4C4A1A603D4B10221A707A
:101B28004A4B00271F704A4B282240201A700CF09D
:101B380085FE98B1032390F90000464A0197009367
:101B48004021454B454F0CF039FD012138600FF01D
:101B5800C7FC3868003018BF012028B9082009F0F0
:101B6800EBFB294B3E4A1A602B68294A13F4804F35
:101B780004D01221117024493A48086042F2010148
:101B8800194003F0010003F4005781B11C4944F6E1
:101B9800206EA1F800E027B1082111701A49324FD0
:101BA8000F6020B10C211170174930480860117876
:101BB8001F06A1F10401517040F1A8804FF0000800
:101BC8002B4F2C48DFF8C89087F801801522414632
:101BD800C7F80480C7F808801CF0C2FD264BC9F876
:101BE8000030404615F01EFB3368FB6002200CF005
:101BF80025FE00284ED1802009F09EFB7FE000BF23
:101C08005A0D002038190020200600206DF6000823
:101C1800A8220020A08601004DF7000871BE000828
:101C2800A1BF000859BE000859BF0008351500209B
:101C38007F15002099BD000885BE0008EDF6000854
:101C48008DF80008B0220020D5F60008401A0020C0
:101C5800411A0020A5F7000848E80100E413002015
:101C6800A1F60008C5F60008B5F60008A5F60008B4
:101C780004320020ED070020D13600203615002060
:101C88007D1500207C1500207E15002090D00300D3
:101C98002432002042797B78DFF820C141464FF09A
:101CA8000C0808FB03CE9EF801E0964507D00133E7
:101CB800DBB2042B4FF00101F3D9002300E001B19E
:101CC8007B70D9F800307A781B7890F90000002BE7
:101CD8003A4B4FF00C0707FB02330CBF01210321DD
:101CE80000225B788DE8060002210CF067FC344B7B
:101CF800186000283FF47FAF012015F093FA314BAC
:101D0800314A1868314B1A6015F0A4FB304F314B3B
:101D1800C7F85C312B68DFF8D0A04FF00008D80373
:101D28008AF8008040F1E18018F0F6F84FF00109D8
:101D380040F22A32414607F5B0708AF800901CF04C
:101D48000FFD434660222449484602F0CDF818208A
:101D58000FF0AEFC16238371204ADFF888C0C7F85D
:101D68008C040223C37180F8088007F5B07A52F812
:101D780038301B4963454FEAC80E01F1900B04D176
:101D88000EEB010393F8952005E008F10108B8F17E
:101D98000A0FECD100222E210FF0DEFC114800239F
:101DA8005BF83310DFF83C9081424FEAC3021DD143
:101DB8000B4B134493F894001CE000BF80120208F8
:101DC80068240020B024002056360020A0140020EB
:101DD800A8060020183700205F2800084CE90108F1
:101DE800BCE80108002C0140502E002001330A2BCA
:101DF800D6D1002016F0B4FCB9F80030D848DFF886
:101E0800A4B323F45C731B041B0CA9F800301D2336
:101E1800C9F82C300223A9F828304FF00008012314
:101E2800A9F8308010A9C9F814306022ADF8443000
:101E380002931092ADF84680CDF84880ADF84C80FA
:101E4800ADF84E80ADF85080ADF852800AF01CFA1B
:101E5800D9F8182042F00802C9F81820D9F8442007
:101E680042F40042C9F8442058460AF08AFA1CA8ED
:101E78000AF05CFABB4A1C9210221E9240F22A32E7
:101E8800ADF87C20802221924FF4807222921CA906
:101E98004FF4005258462592CDF874A0CDF88080B2
:101EA800CDF88C80CDF89080CDF898800AF04BFA68
:101EB800D9F80C20029BAC4942F40072C9F80C20F6
:101EC800DBF8002042F00202CBF8002087F89034BB
:101ED800FF22631824F801800434802C9A70DA7089
:101EE800F7D101F0A1FE01F09FFE2B68590568D5D6
:101EF800DFF8B4829D4BD8F800201A6004200CF05B
:101F08009DFC0421C7F894040CF06EFC984BD8F89B
:101F1800002087F8980408201A600CF08FFC954B75
:101F2800954C186008210CF05FFC2C2287F8990466
:101F3800002120461CF014FC8E2363704FF07C0AAD
:101F4800E0234FF07D09E37084F800A084F82B901B
:101F58008A4C00212C2220461CF002FC8A23637044
:101F6800A023E370864BD8F800201A60202084F85C
:101F780000A084F82B900CF061FC2021C7F89C0489
:101F88000CF032FC87F8A00410200CF057FC10214C
:101F9800C7F8A4040CF028FC7A4B87F8A8043B2265
:101FA8001A7001225A703A221A719F229A711E22BF
:101FB8001A72A4225A7200229A72DA721A7318F0EC
:101FC80016FE2B689A0240F19B804FF434796E4CD0
:101FD8006E48DFF8D0A14A4600211CF0C1FBC022A0
:101FE80000236B49012001F07FFF63694FF09040A7
:101FF80043F400336361436A23F00F034362436A87
:1020080043F00603436202234FF000084FF4807B3D
:102018008DF83C308DF83F300EA903238DF83D3004
:102028008DF83E80CDF838B00AF024FAA36943F45D
:102038000063A361A4F5644410A9238823F45C73A6
:102048001B041B0C23809C23E3620123A4F8288033
:102058006022A4F8308020466361ADF844300293D2
:102068001092ADF84680CDF84880ADF84C80ADF8B8
:102078004E80ADF85080ADF852800AF005F9A2699B
:1020880042F00802A261626C42F400426264504667
:102098000AF077F91CA80AF049F932491C91102175
:1020A8001E91802121914FF40051384B25915046C3
:1020B8001CA91D93ADF87C90CDF88080CDF888B030
:1020C800CDF88C80CDF89080CDF898800AF03BF957
:1020D800E16841F40071E160DAF8001041F00201B2
:1020E800CAF8001001F03EFD16F072FD294A029B65
:1020F80087F8A93487F8AA34137843F008031370D3
:102108003E200FF0D5FA0E24234A847100274FF0A1
:10211800010880F807802021077210600FF058FB33
:102128001E4B2C2083F800800FF0C2FADFF87C8069
:102138008471C4711A4C07720D21C8F800000FF0A1
:1021480047FB238823F040031B041B0C23802388B0
:1021580023F038031B041B0C43F0300328E000BFB6
:10216800002C0140342C0140522E00200C1300207A
:102178005C130020A81300202C13002060130020FB
:10218800C01300207C22002000100240FE390020ED
:102198003525000865500020442E0020482E0020D8
:1021A800003800401C0002409C140020402E0020F3
:1021B800238023889BB243F0400323804FF47A7036
:1021C80010F026FED8F800000FF09BFA20460A23EC
:1021D8003A46394608F052FF784C16F03FFD40B1B8
:1021E800013CFAD1764B1A7E83F8244001321A76E4
:1021F80006E0734B32685A61012283F8242018766E
:10220800704B714C0021997041F2142102225A70CE
:102218005A50B4F8D8316D4A013B9BB2052B9EBF8A
:10222800012384F8E63184F8DA31526994F8E6310A
:102238005343674A13602B68664A13F4002318BF98
:10224800012313706379052B02BF634B4FF4C872E7
:102258001A800AF0C3FA614BC8221A80604A1378C0
:1022680043F0080313705F4A137823F002031370D6
:102278002A6840F6020313406BB15B4B5B49196057
:102288005B4B032119705B4B012119705A490023DC
:102298000B805A490B80930306D5594B06221A71B5
:1022A800DA7842F00102DA70A3682B60554B0122FC
:1022B8001A70554A137863F07F03137031B0BDEC80
:1022C800068BBDE8F08F0427FFF776B81BB208EE3F
:1022D800103AB5F9CC31DFED4D7A4D4A09EE103A96
:1022E800B5F9D031B8EEC88A08EE903A28EE278AB8
:1022F800B8EEC99AF8EEE88A0021B0EE480A29EE4D
:10230800279A68EEA78A117014F09EFBF0EE409AA7
:10231800B0EE480A14F037FBB0EE408AB0EE490A36
:1023280014F092FBB0EE40AAB0EE490A14F02BFB71
:10233800F0EE40AAB0EE680A14F086FBB0EE409AC0
:10234800B0EE680A14F01FFB69EE806A68EE097A3D
:10235800F0EE665AEAEEA75A2E4B29EE896A28EE65
:10236800007AC3ED035AB0EE465AF1EE6A5AA5EE6A
:10237800875AEAEEA67AA5EE867A2AEE099A2AEE16
:10238800400A28EE4A8A69EE8A9A83ED009A83ED1C
:10239800010AC3ED02AA83ED045A83ED058A83ED91
:1023A800067AC3ED077AC3ED089AFEF756BE012CEC
:1023B8007FF6ACA838700024FFF771B8A186010039
:1023C800B4220020D03C002030340020CC1500205E
:1023D800E4160020FA180020701200208C3100202A
:1023E80014130020EC1A0020141600204236002096
:1023F8001F1B0020940500203C3200203E320020A4
:102408006C240020901000206550002035FA8E3C86
:1024180028020020F0150020334B344A1B6812684C
:1024280030B51A60324A334C116859605168926865
:10243800DA60314A996011681961516892689A6145
:102448002E4A59611168D961516892685A622C4ABA
:10245800196211881985518859859188D288DA8539
:10246800284A998511681986516892689A86264A79
:1024780059861168D986516892685A87234A1987FC
:10248800118899875188D9879188A3F840101946EF
:10249800D28821F8422F1E4A10780022824205DA9B
:1024A80034F9125021F8025F0132F7E7194A12880D
:1024B800A3F86C20184A1288A3F86E20174A1168EE
:1024C800A3F8741051689268A3F87820144AA3F806
:1024D800761012681A67134A1288A3F87A20124AEB
:1024E8005289A3F8662030BD580B002084310020A3
:1024F8009417002000250020A0170020AC1700200A
:10250800C0160020D4160020F01200203C1600202F
:10251800E31600203816002048320020E031002061
:1025280000130020FC2E0020B01000200168027B60
:1025380030B502230C6803FA02F222420BD0064A95
:1025480000241473446825684FF6FE722A402260FE
:10255800027B93404B6030BD580B0020FF20704732
:10256800012380F845307047014B1868704700BF59
:10257800601B002001207047704770472DE9F74F16
:102588006A4CDFF8ACE10091DEF810302188B4F92C
:102598000280C1EB231252434900C1EBE30113133C
:1025A800B4F90420534308FB01F89B1303EBE82319
:1025B80003EB83028032B3F5FA384FEA22224FEA5E
:1025C800E37949F1FF390192B4F90820A361A8FB26
:1025D80008AB08FB09F30BEB430B02FB09F1D3171C
:1025E80008FB0311A2FB08230B441F03160347EA49
:1025F8001257B4F90A2002FB0BF1D3170AFB031395
:102608000546A2FB0A011944020A42EA016292192C
:102618004FEA2123E6887B41003243F50043A2FBC1
:10262800060106FB03114A10CB1752EA030170D0CA
:10263800B4F9100000FB0BF6C1170AFB0166A0FBFA
:102648000A013144B4F90E6006FB09FCF71708FBD0
:1026580007C7A6FB0889B9444FEA484A4FEA494BDD
:102668001AEB000A4BEAD83B4BEB010BDEF81410CF
:10267800B4F90C80C1F5801E7646F71700264FEA9C
:10268800CE70F90716EB0A064FEAC80741EA5E0161
:1026980047EB0B0740F6354E861B61EB0707A6FB99
:1026A8000E010EFB071119F0F5F9B4F916204E13B7
:1026B800470B47EAC14702FB06FED31707FB03EEA9
:1026C800A2FB07237344564307FB0366A2FB0723B9
:1026D8003344560E46EAC3163218B4F914604FEA6A
:1026E800636747EB01037143F71700FB0717A6FB66
:1026F80000013944C60C46EA4136B6184FEAE147AC
:10270800B4F912005F41330A43EA07630201134434
:1027180000E000230DB11B0A2B60009B13B11A4681
:10272800019B136003B0BDE8F08F00BFD007002005
:10273800580B00207047044B1A7E02F0FF0012B1BC
:1027480000221A7601207047580B002037B5104B2D
:1027580004465D6818786A460621A847A8B19DF81E
:1027680000209DF8013043EA022323809DF80220CF
:102778009DF8033043EA022363809DF804209DF806
:10278800053043EA0223A380012003B030BD00BF17
:10279800A807002013B5104B04465B686A4606215B
:1027A8003B209847A8B19DF800209DF8013043EAE6
:1027B800022323809DF802209DF8033043EA022378
:1027C80063809DF804209DF8053043EA0223A38026
:1027D800012002B010BD00BFA8070020014B012254
:1027E8001A767047580B0020026D036B70B50446CB
:1027F800D5699BB9A90611D5C36A1BB1908C80B263
:1028080098470BE0E169928C40694E1CD2B2E661B0
:102818004254E169E268914228BFE361616BA1B962
:102828002A0612D5636AA26A9A42236D09D0501CFF
:10283800A669A062B25C1A852369984205D3A16291
:1028480003E01A6822F080021A602B0742BF236D4A
:1028580008221A6270BD0168027B30B502230C6839
:1028680003FA02F222420BD0064A0024147044688C
:1028780025684FF6FE722A402260027B93404B6027
:1028880030BD00BF512E00200E4B2DE9F04193E8DA
:10289800C0009D6888460024064407440544444512
:1028A8000EDA37F9142036F9140035F914301344C8
:1028B800022293FBF2F3C01A18F001FC0134EEE790
:1028C800BDE8F081580B002070B5472018F020FBB8
:1028D800174B184C1B6813F4002F06D06368164A70
:1028E8001B681068C01A18F0DBFB144E144D3078C2
:1028F80018F0D6FBE3692868C01A18F0E0FB236AD1
:102908006868C01A18F0DBFB0E4B188818F0C8FB73
:102918000D4B188818F0C4FB0C4B188818F0C0FB36
:10292800337884F82C302B6863626B68A36270BDBF
:10293800F8130020580B0020843100201A130020BF
:102948001C1300201813002016130020C0100020AC
:102958007FB52A4C2A4E2B4D2B492C4A2C4B20B1A3
:102968002C480088B0F5805F35D23068234E91F846
:1029780020101278019028788DF8080006F13005AB
:102988008DF809108DF80A201B788DF80B30082275
:10299800294601A81BF0BAFE68B301AB03CB30632C
:1029A8006960532018F0B4FA206B18F079FB94F89A
:1029B800340018F075FB94F83530019394F83630EC
:1029C800029301A894F83730039318F0D9FA114B01
:1029D80000221A800FE03068206391F820102878D0
:1029E80012781B7884F8340084F8351084F836207F
:1029F80084F83730D5E704B070BD00BF580B00200D
:102A0800E81A002014130020B81A0020941100209E
:102A180042120020FE13002010B5064C23780BB993
:102A2800002010BD10F0B6F96368C01AD0F5FA504E
:102A3800F6D410BD283400202DE9F04190F8444028
:102A4800002380F844301CB316490A681AB30A6890
:102A5800052A23D1144BDFF854801F6800F1300594
:102A68001E46D8F8003023B92146284612F009FC42
:102A780000E000203368DB1B241A322BE4B2054443
:102A880001D8002CEDD1B4FA84F04009BDE8F081FA
:102A98000120BDE8F0811046BDE8F0811846BDE888
:102AA800F08100BF401B00203C2E0020A41B00200A
:102AB800002280F84520BFE790F84420531C0244C8
:102AC800DBB280F8443082F8301090F845200AB123
:102AD800132B00D9B0E77047114B2DE9F04114468C
:102AE8001A680E46CAB11B68052B16D10D4BDFF8C4
:102AF80038801F681D46002C0FDDD8F8003023B938
:102B0800E1B2304612F0BDFB00E000202B68DB1B71
:102B1800322BA4EB00040644EDD9BDE8F08100BFD8
:102B2800401B00203C2E0020A41B00202DE9F3416F
:102B3800204D214E2F46214B1A680AB91C6800E027
:102B4800012495F838101E48002200EB010ED0B27F
:102B5800844202F1010207D90DF1080C84441EF8E1
:102B680000000CF8040CF2E71A68121B1A60D3F87C
:102B78000080214487F83810B8F1000F12D14021A5
:102B8800032013F029FA336823F4804323F07003F9
:102B98009BB283F4405343F4004343F08003336013
:102BA80085F83880002CC6D09DF8040002B0BDE836
:102BB800F08100BF580B00200C5C0040601B002017
:102BC800641B002007B5002015F0CBFF142010F07F
:102BD8001FF90F2015F0C5FF0A2010F019F903217D
:102BE80001AA102015F0A0FF0A2010F011F99DF994
:102BF80004209FED265ADFED265A264B06EE902A32
:102C0800F8EEE66AF7EE007A76EEC56A9DF90520D9
:102C1800B0EE677AA6EEA57A002006EE902AB3EE0B
:102C28000E6AF8EEE66A27EE067A76EEC56A83ED56
:102C3800007AB0EE677AA6EEA57A9DF9062027EE0F
:102C4800067A83ED017A07EE102AB8EEC77A37EED6
:102C5800457AE7EE257A67EE867AC3ED027A15F0B3
:102C680080FF0A2010F0D4F80DF1030201210220A0
:102C780015F05AFF0DF103020121092015F054FF48
:102C8800022015F06EFF03B05DF804FB000000435E
:102C98000000803B0000002007B506226B46F721A4
:102CA800762015F0E7FD9DF801309DF800100C4ADC
:102CB8001B0143EA01339DF8021043EA11135361E3
:102CC8009DF804309DF803101B0143EA01339DF879
:102CD800051043EA1113136103B05DF804FB00BF4C
:102CE800580B002013460A460146682015F0C2BD5D
:102CF8003122F421762015F051BD0A46014668209C
:102D080015F04CBD2DE9F0410C4C0D4D8046206866
:102D180016460F460EF0F0FC48F08001284608F0F1
:102D2800DAF93B4600223146284608F0A7F9206820
:102D38000EF0E7FC0120BDE8F08100BFC8070020C5
:102D48000030014010B50446FFF766FE08B110F0E8
:102D58003DF8054B00221A70597822464920FFF7A2
:102D6800D1FF012010BD00BF283400202DE9F74312
:102D7800DFF80881044601270020C14698F8393059
:102D88003E4E012B354609D002D3022B22D028E033
:102D98000121022015F0F9FE012318E0FFF73CFE9F
:102DA80008B1002067E06846FFF7CCFF9DF80030C7
:102DB80008B19B0706D1002389F83930002FF0D0DD
:102DC8001F46DBE70721032015F0DFFE022386F804
:102DD8003930E6E7FFF720FE0028E2D16846FFF722
:102DE800B1FF0028DDD09DF8062012F00302D8D1EB
:102DF8009DF801109DF800309DF8030085F83920F2
:102E080043EA01231BB25B421D4907EE903A91ED5C
:102E1800007AF8EEE77A67EE877A91ED017AFDEEAF
:102E2800E77A17EE903A23809DF8023043EA0023B0
:102E38001BB25B4207EE903AF8EEE77A9DF8050080
:102E480067EE877A91ED027AFDEEE77A17EE903A0F
:102E580063809DF8043043EA00231BB25B4207EE0F
:102E6800903AF8EEE77A012067EE877AFDEEE77A86
:102E780017EE903AA38003B0BDE8F083580B00200A
:102E880000000020F8B50A4C0A4D074620680E4697
:102E98000EF032FC3946284608F01DF9314628461E
:102EA80008F019F920680EF02CFC0120F8BD00BFCD
:102EB800C8070020003001402DE9FF47454D95F82F
:102EC8003A30002B40F08280434B1B68002B7DD0AA
:102ED80018780EF0EDFB04460EF022FC0746002899
:102EE80074D1142308260146A3712072E671204686
:102EF8000EF06EFC394BEB6320460EF01AFC0028EE
:102F080055DB374BDFF8E89005F13C0243F8202009
:102F180019F8008020460EF016FC824620460EF076
:102F280008FCC1B201F0030001F0FC0101F180438B
:102F380003F58033800099680F22824021EA02025B
:102F48009A6099685FFA8AF202FA00F0084398607A
:102F580020460EF0EEFB4FF0010A20F01F01214A37
:102F680000F01F030AFA03F38B5002900DEB0600E2
:102F78008DF80C708DF80D608DF80EA015F066FDBB
:102F8800194B13F80820F02A11DDF02203F8082065
:102F980009EB080301A81B7C8DF8043003238DF886
:102FA80005308DF806708DF807A015F0DDFC204679
:102FB8000EF0BFFB002806DB0C4901220B6802FA61
:102FC80000F018430860012385F83A3004B0BDE8E2
:102FD800F08700BF580B0020C0070020E527000835
:102FE8001014002014040140B4060020000401401D
:102FF80058EA010870B5264C0546FFF75DFFFFF754
:103008005BFFA36880216B20984764200FF000FFC6
:10301800A36807216820984764200FF0F9FEA36889
:1030280000216B20984764200FF0F2FEA36801216D
:103038006B2098470F200FF0EBFEA36818211B2088
:1030480098470F200FF0E4FEA36818211C2098472A
:103058000F200FF0DDFEA36829461A2098470F209D
:103068000FF0D6FE0B4AA368117819209847642000
:103078000FF0CEFEA3681021372098470F200FF0DD
:10308800C7FEA36801213820BDE87040184700BF7B
:10309800A8070020EC07002010B50446FFF70CFF36
:1030A8004FF40063238110BD10B4047B01684369A9
:1030B8000222A2404A60416808684FF6FE72024048
:1030C8000A60596A9A6A914204D018465DF8044B1E
:1030D8000FF0F4BE012283F844205DF8044B7047DA
:1030E8002DE9F04FCF4FDFF86C833B88CE4C8BB087
:1030F800002B40F0B680D8F8A835CC48DFF834B3B8
:1031080023F07F4323F0FF031D1A68426841FFF74D
:103118001FFCFFF781F92568492017F0F9FEC44B19
:103128002E46186817F0BCFF56F8040B17F0B8FFC6
:10313800304615F0D5FD05F1100015F0D1FD05F16B
:103148001C0910274FF0010ADBF80020B94E0AFAD3
:1031580007F3134203D0D9F8000017F0B0FF013786
:10316800132F09F10409EFD1032105F1280017F005
:10317800AAFFB8F8CC30B5F92E00C01A17F090FFA6
:103188003368D80408D5AC4BB5F86C001B88181AFE
:10319800C0F30D0017F084FF3368990403D5B5F820
:1031A8006E0017F07DFF33685A0504D5032105F139
:1031B800740017F088FF33681B0502D5286F17F0D5
:1031C8007EFF33681F0403D5B5F87A0017F068FF4F
:1031D800032105F1300017F076FF2F46032105F192
:1031E800360017F070FF042105F13C0017F06BFF63
:1031F800B8F8CC3037F9440FDFF85C92C01A17F0F2
:103208004FFF4FF0010899F80030984509DA37F96F
:10321800020FB5F94430C01A17F051FF08F1010840
:10322800F1E733689E0505D5B5F96600A0F2DC50D4
:1032380017F045FF226881486260A260121A911057
:103248007F4A4A43531C032293FBF2F202EB4202E9
:103258009A1A7C2303FB020323607A4B01221A701B
:1032680016E2794B1D68D4F8B4319D420FD0774BE4
:10327800C4F8B4511B78093B012B08D8452017F036
:1032880047FE002017F044FE284617F009FF704B50
:10329800D4F8B8611D68B54213D0634BC3F8B85170
:1032A8006A4B1B78093B012B0BD8452017F030FEE1
:1032B8001E2017F02DFE284617F0F2FE304617F0B4
:1032C800EFFE98F8A9153B8898F8AA050B44013B2E
:1032D800B3FBF0F200FB1233994240F2A4810120C3
:1032E800FFF736FBFFF798F850202668656817F057
:1032F8000FFE2268A36810681B68626803441068A0
:10330800A3EB400017F0DBFE06F1040E281D002396
:1033180050F823105EF82320521A02A941F82320FE
:103328000133032BF4D1084615F0DAFC06F1100E30
:1033380005F11000002350F823105EF82320521ADC
:1033480002A941F823200133032BF4D1084617F0D2
:1033580017FE384A06F11C0B05F11C094FF010083E
:103368004FF0010A13680AFA08F0184208D0DBF88F
:103378000000D9F800300192C01A17F0A0FE019A97
:1033880008F10108B8F1130F0BF1040B09F1040956
:10339800E8D106F1260005F12601002331F902EFF4
:1033A80030F9022FCEEB02020DF1080E4EF8232061
:1033B8000133042BF2D103214FF0000A4FEA8A03AC
:1033C8005FFA83FA02AB53F821206AB102F10800D0
:1033D8000F2802D84AF0010A06E08032FF2A94BF7B
:1033E8004AF0020A4AF0030A11F1FF31E6D25046C8
:1033F80017F08EFD4FF000080DF1080BC1460AF0DA
:103408000301022933D003293BD0012958D1DBF825
:103418000000B9F1000F21D100015FFA80F8894658
:103428004EE000BF00140020580B002000012000CF
:1034380004140020F8130020FC130020980B00202F
:10344800DF7BEFBD0A14002058320020FA18002054
:10345800E81A002030340020E316002000F00F00A6
:1034680040EA080017F054FD4FF0000928E0B9F1D0
:10347800000F0DD0DBF80000C0F3031040EA08008D
:1034880017E0B9F1000F08D19BF8010017F040FDD3
:103498009BF8000017F03CFD12E0DBF80000C0F3D9
:1034A800033040EA080017F033FDDBF80000C0F3F2
:1034B800071017F02DFDDBF8001009015FFA81F8FD
:1034C8000BF1040B06AB5B454FEA9A0A97D1B9F1A9
:1034D800010F02D1404617F01BFD6F4B1B6813F418
:1034E800805807D0B6F86C20B5F86C10521A0292C2
:1034F8004FF0010898040BD50AAA02EB8801B5F829
:103508006E00B6F86E20121A41F8202C08F1010856
:10351800590514D502AA02EB880C06F1720E05F1C2
:10352800720000223EF9021F30F9029FC9EB010127
:103538004CF822100132032AF4D108F103081A05C5
:1035480009D50AAA02EB8800296F326F521A40F88F
:10355800202C08F1010818040CD50AAB03EB8802EB
:10356800B5F87A10B6F87A305B1A42F8203C08F1C0
:10357800010802E0B8F1000F22D0B8F1010F03D121
:10358800029817F09CFD1BE008F1FF33002002AA07
:10359800400052F82320C0B20AB140F0010013F1F4
:1035A800FF33F4D217F0B4FC4FF0000902AB53F824
:1035B800290008B117F083FD09F10109C145F5DBC0
:1035C80003213020FFF760F903213620FFF75CF96B
:1035D80004213C20FFF758F9304B44201978FFF7B5
:1035E80053F92D4B1B68990506D5B6F96600B5F950
:1035F8006630C01A17F063FD226829486368626064
:10360800121A9110274AA3604A43531C032293FBC2
:10361800F2F202EB42029A1A7C2303FB02032360B4
:10362800214B01221A70214B1B681A0630D5204DF8
:10363800E26929681F4B91420AD169681A6A914266
:1036480006D13A88102A11D1B3F8BC315B060DD1E6
:10365800482017F05DFC286817F031FD686817F0FE
:103668002EFD2B68E3616B6823620FE0124A94F821
:103678002C1012780F4B914208D1104A596A1068E1
:10368800884203D152689B6A9A4201D0FFF71CF91D
:103698000BB0BDE8F08F00BFF8130020E316002040
:1036A800980B0020DF7BEFBD0A140020AC1A002025
:1036B800D8130020580B00201A1300201C130020D8
:1036C80070470C4A1388013313800B4A136801337F
:1036D80013600A4A138801339BB2202B03BF0023CF
:1036E8001380074A138002BFB2F8BC310133A2F835
:1036F800BC317047FE130020041400200014002081
:10370800580B00202DE9F74FC2EB030817460E9B14
:103718000D9A4C4C9B1A00936368002914BF062627
:103728000426013381468B4624D12568AE4240F2F7
:103738008580454B03EB85039A690192104617F083
:10374800FFFC0B3017F076FB019A824608B1012086
:1037580075E0032D94BF494659463C4817F0C6FB0F
:103768003B4A1368181A6368106001336360394B69
:1037780083F8BEA1DFF8D890DFF8D8A063680C9A68
:10378800304D934242DA0D9A4AB1009A0D995A4344
:10379800895C01228A40304909680A4232D003FB19
:1037A80008F5236807EB050B23B9785917F0C8FC0F
:1037B800431D00E003231846019317F03BFB002844
:1037C800C5D1D9F80000019BC01A9AF8BE31C9F8D2
:1037D80000001BB12C2017F09BFB02E001238AF8A4
:1037E800BE31236843B9785917F054FB9BF904108C
:1037F8004B1C07D0194803E09B4419489BF8041058
:1038080017F074FB636801336360B7E710D10120D8
:1038180017F010FB60B90E4A13680A20013B1360C9
:1038280017F076FB2B6801332B604FF0FF336B608A
:103838002068864294BF0020012000E0002003B0E9
:10384800BDE8F08FF013002058EA0108FF130208C2
:103858008C500020580B0020F81300200E1402088A
:10386800833B0208124A38B513780B2B144617D835
:1038780001229A4040F603051540BDB912F4C06F05
:103888000ED0093B012B0BD8452017F041FBFF2038
:1038980017F03EFB074817F0FDFA284617F038FBEB
:1038A800054B1A68054B5A600B23237038BD00BFBF
:1038B800FA180020131402083C2E0020F0130020F0
:1038C8002DE9F04F914D2E78012E87B040F01A81E6
:1038D8008F4C94F8A92522B194F8AA350BB19A42D5
:1038E80003D3012384F8A9350FE01846114630B1F7
:1038F80091FBF0F700FB171701463846F7E792FBF4
:10390800F1F284F8A92593FBF1F384F8AA3594F829
:10391800AB352BB1022B1EBF7D4B002283F8AB25A4
:1039280094F8AB7517B1022F32D03DE080200AF031
:1039380085FF8046002837D080210AF055FF754B57
:1039480098F806201870744B98F9000053F8223044
:10395800B3F5613F0CBF02220022019202220092BD
:1039680080213A460AF02AFE6C4B18606C4B1B68A3
:103978004FF4FA7203EB4303B3FBF2F31BB1402B92
:10398800A8BF402300E00123664A137078B90BE012
:10399800654B5A78012A07D941F2B5129B5C1BB9CD
:1039A800604B40221A7002E000232B70AAE05F4DA2
:1039B8001422002105F11C001AF0D2FE2B4605F155
:1039C800400243F8BC2B6B6005F59C73AB60584B09
:1039D80094F8A9E51A88574B94F81E821A8094F82F
:1039E800AA25554B9645554A4FF0000018601268B5
:1039F800534B0592534A1968534B12781F68039228
:103A0800637994F84C2228BF4FF0000EA3F11904F3
:103A180038BF4FF0010E824201F4006CC1F3400A36
:103A2800C1F3C03118BF012162426241012B14BFAA
:103A380013460123C7F380090493C7F3C00704465C
:103A4800721ED2B2531E132B2FD8DFE803F00C0CD2
:103A58000C0C0C0C0C0C0A5557191B33291212129A
:103A68002B33049B4BE0039B9342B4BF00230123F9
:103A78001AE0059B13445B79003318BF012313E058
:103A880053463CE0BCF1000F06D008F1FF3BDBF1E8
:103A9800000343EB0B0300E0634603F001032EE051
:103AA8000B462CE073462AE023B1012303FA02F205
:103AB80014431846142E02D80136F6B2C0E708B1EE
:103AC8001D4B1C6019200CF093FF204B204A1870E6
:103AD800002313601F4AA5F8BC3113801E4A1268E0
:103AE800C5F8B4211D4A1268C5F8B8211C4A1370DC
:103AF800064B02221A7005E03B4600E04B46002BBD
:103B0800D3D1D9E707B0BDE8F08F00BFFA1800207D
:103B1800303400200B14002084FB01089050002052
:103B2800E4160020EC130020D03C0020580B0020A5
:103B380038160020FC130020F8130020B0240020C1
:103B4800AC1A0020E3160020201B002008140020D7
:103B5800041400200014002058320020E81A002025
:103B68000A14002010B5074BD3F8C0210021187B98
:103B7800541C10B122460121F9E711B1014BC3F8D9
:103B8800C02110BD580B002038B5204B1B78002BE6
:103B98003BD01F4B1B78002B37D01E4C237B03F0E8
:103BA800FF0593BB0FF0F6F8D4F8C431C31A002B05
:103BB8002BDBD4F8C831184A591C13444FF47A72D5
:103BC80093F83030C4F8C811534303F58C531433B9
:103BD8000E29184488BFC4F8C851C4F8C401FFF7B7
:103BE800C1FF0E4A00231380012222730C4A4FF4AE
:103BF800347151600B494B620B889BB243F001034F
:103C08000B80136843F00103136038BD510B00208B
:103C1800520B0020580B002058EA0108FC390020FC
:103C28001C000240002C01402DE9F04F894A85B064
:103C38001378029203F0FF05002B40F00881864EAE
:103C4800019696F8D02196F8D19196F8D231A6F837
:103C5800CC51A6F8CE5129462F46AE46AC46AB46C7
:103C68003C240FFA85F8B8F1200F00F0BF807B489C
:103C780000EB880C9CF803009CF802C0CCF1FF0C08
:103C88001FFA8CFCBCF1000F00F08280734ECCF15F
:103C9800FF0C00FB0CFC36F828804FEA2C2C3C2645
:103CA800B8FBF6FABAF1050F75D8DFE80AF0031089
:103CB8002233485A5FFA8CF3CCEB000C08FB0CF863
:103CC800B8FBF4F8984402465FFA88F05CE0B8FB69
:103CD800F4F204FB128292B25FFA8CF3C2F13C0256
:103CE800CCEB000C0CFB02F2B2FBF4F21A44D2B299
:103CF8004AE0B8FBF4F304FB13885FFA8CF21FFA6E
:103D080088F8CCEB000C08FB0CF3B3FBF4F313447A
:103D1800DBB239E0B8FBF4F304FB13881FFA88F828
:103D28005FFA8CF2C8F13C08CCEB000C0CFB08FCE9
:103D3800BCFBF4FC944403465FFA8CF024E0B8FB27
:103D4800F4F204FB12885FFA8CF11FFA88F8CCEBC6
:103D5800000C08FB0CF2B2FBF4F20A44D2B20346A0
:103D680011E0B8FBF4F304FB13839BB25FFA8CF108
:103D7800C3F13C03CCEB000C0CFB03F3B3FBF4F3F3
:103D88000B44DBB20246084601210F468E4603E08B
:103D980003460246F8E748464FEA02284FF0170C58
:103DA80048EA00480BEB0C0648EA03080396039E12
:103DB800CCEB0609012606FA0CFA1AEA080F1FFAD4
:103DC80089F9274E14BF4FF0110A4FF0090A1CF168
:103DD800FF3C06F809A0EAD20BF1180C01351FFACE
:103DE8008CFBADB24FF0010C81463AE7BCF1000FF5
:103DF80002D00198A0F8CCB1BEF1000F02D0019812
:103E080080F8D02117B1019A82F8D19111B1019AA5
:103E180082F8D231BCF1000F03D0019A2023A2F816
:103E2800CE31029A012313700E4B1B787BB10E4AD8
:103E38000E4940F22A33536000234B620B889BB231
:103E480043F001030B80136843F00103136005B0CE
:103E5800BDE8F08F512E0020580B0020522E002074
:103E680008080020380B00201C000240002C0140EC
:103E78000148FEF7B9BC00BF502700200148FEF7F3
:103E8800B3BC00BFFC2600200148FEF7ADBC00BF54
:103E9800A8260020F7B506460D46002401272A88E3
:103EA80007FA04F31A421AD0AA78009302F003031F
:103EB8008DF80430EB78022B03D0032B0CBF0323BF
:103EC80001238DF805306946C2F301133046C2F369
:103ED80081028DF806308DF8072008F0CBFA0134FE
:103EE800102CDCD103B0F0BDF7B50E4F0E4D1824E1
:103EF80004FB00706E69C46934436C610362437EDD
:103F08008DF804300023416192098DF8063001A82C
:103F180001238DF805208DF8073014F025FD03B036
:103F2800F0BD00BF00000020001002400348D0F898
:103F38001C3113B100F58A70184770470000002043
:103F48000348D0F804310BB1FC301847704700BF64
:103F5800000000200348D0F8EC300BB1E4301847DB
:103F6800704700BF000000200348D0F8D4300BB1E0
:103F7800CC301847704700BF000000200348D0F835
:103F8800BC300BB1B4301847704700BF00000020A8
:103F98000348D0F8A4300BB19C301847704700BFD5
:103FA800000000200348D0F88C300BB1843018474B
:103FB800704700BF000000200248436F0BB16C300F
:103FC80018477047000000200248C36D0BB15430F9
:103FD80018477047000000200248436C0BB13C3082
:103FE80018477047000000200248C36A0BB124300C
:103FF8001847704700000020024843690BB10C3095
:104008001847704700000020034A138801339BB209
:1040180013800020704700BF301B00201549D1F8DD
:10402800883043F47003C1F88830134B1A6842F0A3
:1040380001021A605868114A02405A601A6822F050
:10404800847222F480321A601A6822F480221A607C
:104058005A6822F4FE025A60DA6A22F00F02DA6223
:10406800186B074A02401A6300229A604FF00063F7
:104078008B60704700ED00E0001002400CC07FF834
:10408800CCFC00FF2DE9F04FBE4B1B689A6ABE4B73
:104098002DED048B1A80BD4B1B78012BA1B004D1E8
:1040A800BB4B1A80BB4A12885A80BB4E039637789E
:1040B800002F01F0BD800EF06DFEB84B04909B6898
:1040C80013B1039A901C9847B54BB64CD3F800909F
:1040D80019F0080F3BD0B449B44D888800F10E039D
:1040E8009BB21C2BB24BB3F904302CD8B14A1288BE
:1040F800560728D50A2293FBF2F22B88D21A92B2DD
:1041080013B213F1B30FB8BF02F5B473AA4AB8BF1C
:104118001BB2B32B1278C4BFA3F5B4731BB2150737
:1041280015D594F9D421524212FB03F2A34B1B6814
:104138005B7A12B213FB02F26FF01D0392FBF3F3EA
:1041480003448B8003E00A2293FBF2F32B809C4B01
:10415800B3F906509B4B1B685A8995420CDB197AB8
:10416800B5F5FA6FBFBFAB1A4B43C2F5FA6193FBC3
:10417800F1F1C1F1640100E0642194F9D431B4F89B
:10418800500294F822A294F823B2DFF81CE25B42B2
:104198009BB2059300228C4BD154894B33F912C042
:1041A800C0EB0C0303F2F31440F2E636B4424FEAD4
:1041B80042087D4C10D883EAE376022AA6EBE37620
:1041C8000ED0564502DDCAEB060300E00023844505
:1041D8002EF8083012DB16E0022A4FF4FA76F2D1F4
:1041E800B345B8BFCBEB0603BDF81460A8BF0023E6
:1041F80013FB06F38445AEF8043007DA3EF80830BE
:104208005B422EF808300132032AC4D16F4B1B6879
:1042180013F4805E0ED0B5F57A7F06DBB5F5FA6F3C
:104228002A46A8BF4FF4FA6201E04FF47A72A2F569
:104238007A7214E05B4BB3F852128D4206DBB5F587
:10424800FA6F2A46A8BF4FF4FA6200E00A46521AEB
:104258004FF47A735A43C1F5FA61B2FBF1F2642361
:10426800DFF8808192FBF3F101F1010A38F911C0FE
:1042780038F91A806FF0630ACCEB08080AFB0121B1
:1042880001FB08F292FBF3F202EB0C039BB2E38012
:10429800BEF1000F16D04E4A1268D20012D54D4A10
:1042A800D2787AB9A3F57A731BB24FF47A721B03EA
:1042B80093FBF2F3C0F5FA6212B2534300EB2330DA
:1042C800394BD8803B4BB3F800B01BF0400F9A46EF
:1042D80039D0374BDFED407AB3F904300A2293FB2B
:1042E800F2F33E4A12889B1A1BB208EE103AB8EE57
:1042F800C88A28EE278AB0EE480A12F0A5FBF0EE2D
:10430800408AB0EE480A12F03EFBB4F9023007EEDC
:10431800103AB4F90030B8EEC77A06EE903A67EE74
:10432800407AF8EEE66AE8EEA67A20EE260AFDEE76
:10433800E77AA8EE870A17EE903AFDEEC07A238056
:1043480017EE903A638019F0140FDFF84C80DFF80D
:10435800549000F0B0801BF4027F00F0AC80164B44
:104368001B7803F0100303F0FF02002B3CD01C4B1A
:1043780099F9A022B3F90010638801FB0233638026
:1043880099E000BFB01600201C1B00203A16002040
:104398003C160020F4140020540D0020CC150020F9
:1043A800201B002030340020C01600207612002088
:1043B800CC160020E41A002014130020B02400209A
:1043C8005822002050140020E0160020AC1A0020CB
:1043D800E81A0020B81A002035FA8E3C781200201E
:1043E800CC310020E21800209B4B9C491B68DFF869
:1043F800C0E2D8789B7880B3BEF900002E1A86EA0E
:10440800E67EAEEBE67E9E450EDDDFF8A8E285424D
:10441800CEF800204FF0010288F80420C8BF5B42A4
:10442800E2889BB2134445E098F804303BB18C4BCA
:1044380088F80420D3F800E08A4BC3F800E08A4BE0
:104448001B681844894B1A6813885288984231DBD4
:1044580082421346A8BF03462CE0BEF900E0CEEB2B
:10446800050282EAE27CACEBE27C9C450ADD022391
:1044780092FBF3F27E4B1A607E4A0123137088F890
:1044880004300AE098F804303BB1754B88F8040012
:104498001A68744B1A60774B1870734B1B689E44EC
:1044A800724B1A68138852889E4503DB724513467F
:1044B800A8BF7346CB80704B1B78ABB1B9F85232AA
:1044C800AB4211DB6D4B5B79012B01D0192B02D16B
:1044D80099F89B2242B90E2B06D0082B04D0002352
:1044E800A380674B00229A6099F8105295B31BF08D
:1044F800030F2FD0634BDFED647A93ED080AB4EE17
:10450800E70AF1EE10FA21D918F080F85F4BD3EDE5
:10451800007A20EE270A17F0E7FFB0F5617FA8BF01
:104528004FF4617007EE900AB8EEE77ADFED587A3B
:1045380087EE270A12F027FA07EE905AF8EEE77A84
:1045480027EE800A17F0D0FF00B200E00020E388D1
:104558001844E08099F856324E4A23B9BAF8001048
:10456800002900F0A9801278002A53D0022B09D024
:10457800032B19D199F85732C3EB431203EB82038B
:10458800DB000FE0444BD3F8F820B2F57A7F05DB67
:1045980044F620639342A8BF134601E04FF47A73B0
:1045A80003F57A739BB201E0B8F806303B4A10680D
:1045B8003B4AB3FBF0F01278451C2DB2092AA8F843
:1045C800085005D1374A2188118061885180D380ED
:1045D800B8F90AA0DFF884B00023DFF8CCE03BF993
:1045E80013800EF1140C0EF10C093CF8132039F964
:1045F80013102CF81380C2EB080201FB0AF191FB9F
:10460800F5F10A4429F813200133042BE5D1AEF85B
:104618000A0004E0B8F80A30013BA8F80A30224A38
:10462800B2F90A50002D4FF0000313DDDFF82CC05B
:10463800B2F908E00C321D4832F9131030F81300B3
:10464800694391FBFEF1411A2CF813100133042B36
:10465800F1D137E0538135E0E0140020C016002086
:10466800D4130020BC310020CC310020E4140020F9
:10467800C0310020D0310020F0010020303400206B
:10468800B4160020742600208FC2753CD414002074
:10469800EFB6B044E01200202C020020E4160020FF
:1046A8003A1600203C160020540D0020680D00200A
:1046B800E2120020C83100201378A8F80A10002B55
:1046C80000F0CD80CF4BD04D93F8583223B1CF4A6C
:1046D8001268960001F1E483CD4BB5F800E01A6842
:1046E800CC4BCD481C68CD4B94F80080CC49DFF802
:1046F80080939FEDCC6A9FEDCC4ADFEDCC3A9FEDDD
:10470800CC3ADFEDCC2ADFEDCC4A93F800C0F7EEC7
:10471800005A161D0023B0EE652A022B14BF92F82A
:1047280000A092F801A039F9135007EE90AAF8EE0C
:10473800E77A06EE905A87EE867A14BF9578557A0E
:104748004FEA430BF0EE007AB4EEE77AF1EE10FA96
:10475800C8BF77EE677AF8EEE66AC8BFA7EE847A34
:10476800C6EEA37AF5EEC07AF1EE10FAD4BFF1EEF8
:10477800676AF0EE676A8DB105EE105AB8EEC55A51
:10478800C5EE061A26EEA65A66EE856A35EEE15A99
:1047980066EEA76A65EE277AE1EEA67A16F801AF0B
:1047A800257827EE037A27EE277ABAF1000F01F071
:1047B800008406EE90AAF8EEE66AF5EEC07A86EE78
:1047C800865AF1EE10FAD8BFF1EE677AF0EE656A14
:1047D800E5EE676AF4EEE26AF1EE10FA01F1B883E9
:1047E800F4EE656AF1EE10FAC8BFF0EE656AC2EE43
:1047F800267A012D67EE277A01F0AE83BCF10C0F03
:1048080001BFBDEEE77ADFF86CA217EE105A2BF85D
:104818000A50B8F1000F41F0D8839FED887A67EE0F
:10482800877A9FED877AF4EEC77AF1EE10FA01F1F4
:10483800C8839FED847AF4EE477AF1EE10FAC8BF88
:10484800F0EE477A0133032BC0ED007A01F1040141
:1048580000F104007FF461AF7B4B00221A707B4BA0
:104868001B68990640F19A80674B1B8803F0300358
:10487800002B00F09380764B1B78DA0740F18E808E
:10488800744BDFED757AB3F90430DFF8EC91734EB1
:104898000A2293FBF2F308EE103AB8EEC88AF2EE59
:1048A800048A28EE278AB0EE480A12F06CF8B0EEB7
:1048B800409AB0EE480A12F0C7F8694B1B6893F8A3
:1048C80003A0B0EE408ABAF1000F45D0654CB9F9A3
:1048D8000200B4F902B0CBEB000012F05FFDCAF1A0
:1048E8000005A842A04603DB5045A8BF504600E09B
:1048F8002846584404B2B8F900B0B9F90000A8F83D
:104908000240CBEB000012F049FD854203DC8245F2
:104918005546A8BF054607EE904A0BEB05031BB2A8
:10492800B8EEE77A07EE903AF8EEE77AA8F80030A2
:1049380027EEC96A68EE277AA8EE076AE9EE077AD1
:10494800C6EE286A87EEA87AFDEEE66AFDEEC77A1B
:1049580016EE903A33801EE0B9F9023007EE103AAD
:10496800B9F9003000EE103AB8EEC00AB8EEC77ACE
:1049780060EE496AE8EE076A28EE008AC6EEA87A71
:10498800A9EE078AFDEEE77A17EE903AC8EE287A84
:104998003380FDEEE77A17EE903A7380324DA846E1
:1049A800324C94F82430013B2646082B00F26A82E8
:1049B800DFE813F009007E001201680221028A0173
:1049C80002026802580210F02FFF0021084610F07A
:1049D800F5FE824610F01AFFBAF1010F40F052823C
:1049E8004FF0000B84F819B010F01EFF40F2AB1125
:1049F800082010F0E3FE0528DFF870903ED189F812
:104A080019A04AE030340020E41A0020E81A0020F7
:104A180050140020B0240020B41600203A160020BC
:104A2800C81700200000C842D7A368410000FA4315
:104A3800000048430AD7233C00C0F9C433338340FD
:104A480000F0FFC500F0FF45E0120020201B002009
:104A580014130020CC16002035FA8E3CC81600200E
:104A6800A01400208612002000380040B422002044
:104A7800C01600203C1600208A12002001280CD104
:104A880004235A4619A9C54806F0F8FA9DF8673074
:104A9800AB2B04BF022389F8193010F0B7FE627EF1
:104AA800BF4B002A00F09881022283F8242077E780
:104AB80010F0BAFE637E022B14BF4FF000094FF0CE
:104AC80080490021372010F079FE4946292010F04E
:104AD80075FE814610F09AFEB9F1000F40F0D281C0
:104AE800637E022B1ED110F09FFE49463A2010F03B
:104AF80065FE042382464A4619A9A84806F0BEFA6C
:104B0800BAF1000F05D110F081FE199B1BBA2FB91D
:104B180001E010F07BFE11F01DF941E7C3F380734B
:104B2800A37602E09E4B83F81A9010F07DFE0021D8
:104B3800092010F043FE002841F08782102199488F
:104B480010F01CFE8246002841F07F8201217F2060
:104B58000CF0E0F90128814641F0778202215046A5
:104B68000CF0D8F9834650B1012824D116213A20F7
:104B78000CF0D0F901308002E063D9461CE0042132
:104B88002C200CF0C7F9032109FA00FB4E200CF089
:104B9800C1F90C21824636200CF0BCF90AF1020357
:104BA80009FA03F300FB0330A0FB0B01430A43EAB5
:104BB800C153E36300E0D14610F028FEB9F1000FBD
:104BC80000F0608110F030FE00210A2010F0F6FDA0
:104BD80000289ED1032374E0102119A810F0CEFDFF
:104BE800002840F04F819DF864309DF8652084F8D6
:104BF80028309DF8663043EA022363859DF86730C4
:104C080084F82C309DF8683084F82D309DF8693090
:104C180084F82E309DF86A3084F82F309DF86B3078
:104C280084F830309DF86C301A0903F00F0384F8CB
:104C380032309DF86E3084F831209DF86D201B04C9
:104C480043EA02639DF8702013439DF86F2043EAFE
:104C5800022363639DF871309DF872201B01DBB25B
:104C680043EA121303F5FA6302F00F02238784F86C
:104C78003A20002F00F0068110F0C8FDA37E63B92A
:104C880010F0D2FD4FF40071102010F097FD064689
:104C980010F0BCFD002E7FF43EAF2B8823F04003BC
:104CA8001B041B0C2B802B8823F038031B041B0CC4
:104CB8002B802B889BB243F040032B800023236278
:104CC800042384F824306BE6DFF8E89099F8003084
:104CD800F3B1354A136813F4003319D04FF4003395
:104CE8005360324A11684FF6FE730B4013602B89EC
:104CF800DB0701F19D8113F0B1FF0028FBD1B8F863
:104D0800043023F002031B041B0CA8F80430012311
:104D180099F8001091B9207A22684FF4807302EB59
:104D280000221E4806F0AAF9237A0133DBB2A3F168
:104D3800020E2372DEF1000343EB0E03002B00F09A
:104D4800A1800021154806F0C6F90021134806F095
:104D5800C2F9FF21114806F0BEF900F01F0005282E
:104D68000FD1072386F82430114BF4681B680C49CF
:104D78007361002C00F094800B690A68496801206F
:104D880058E010F0E7FFE4680549002C3FF408AE4E
:104D98000B6949680022012062E000BF003800402A
:104DA800B4220020F42200200000024058000240F3
:104DB8003C2E0020482E002013F05EFF00285AD019
:104DC80000222276226AB04B012A08D9013A1A62D7
:104DD800DA690132DA61082283F8242052E004D12A
:104DE80010F0A8FC02284DD102E0042283F8242008
:104DF80010F00CFD46E04FF400712068DFF888924F
:104E080010F0BCFC012817D002D302281BD039E0CF
:104E180010F0FCFCD9F80C400423002089F8243059
:104E280089F81800002C3BD0D9F81030D9F80020A8
:104E3800D9F80410A04725E0944B1A68D9F8143023
:104E4800643393421ED210F0E1FC10F083FFE46853
:104E58008D49002C3FF4A4AD0B6949680022104627
:104E6800A0479DE513F008FF28B110F0CFFC0423FC
:104E780084F8243006E0854B1A686369FA33934254
:104E8800FFF449AE96F82430013B022B08D87F4B3B
:104E98007D4A1B6852699B1AC82B01D910F05AFF2A
:104EA80096F82430042B02D0082B40F0A981784CC6
:104EB80010F086FF6378022B01D1254647E0032BCB
:104EC80040F09E8173480AF0ADFA73480AF0AAFAD6
:104ED80072480AF0A7FA724890E16268A3682769E5
:104EE800991AB94284BFEA602961032840F05C81BD
:104EF80026690623652EA37029D9A6F164032B61C0
:104F080010F0A0FB653E4042064001362E6110F0CD
:104F180099FB86421BD9DFF89481EF68D8F8000026
:104F28003E44023086422CBF0020012010F094FB42
:104F38002A69D8F808306F6053435B0248F8903C00
:104F480048F88C3CAE6048F8747C0523AB70A378B5
:104F5800072B00F25581DFE813F008003400C90080
:104F6800D400D600330144014E010023092219A9B7
:104F7800184610F05FFC012840F04281199B93F815
:104F8800FE21552A41F0578093F8FF21AA2A41F0C3
:104F9800528003F5DF7203F5FF73906860B11179F1
:104FA800A1F10B06012E03D901F0F701062903D15F
:104FB8003C4B186001231CE110329A42EDD101F0FC
:104FC8003AB841F2FC160023092219A9A059304D1C
:104FD80010F030FC012840F01381002319982B7041
:104FE800B0F80B30B3F5007F41F02D80037C022B25
:104FF80041F0298090F8FE31552B41F0248090F83B
:10500800FF31AA2B41F01F80B0F80EE0AB590EEB30
:10501800030605F590531E60477B41F21023EF50BD
:105028007B1E7F2B01F20F807B4237EA030341F09E
:105038000A807B0241F21822013BAB50C58A05B9B0
:10504800456A41F20423E550B0F81110164B4901A6
:1050580001F2FF1149121960B0F8132002B9026A6F
:105068006D000EEB01032B44D21AB2FBF7F341F2A9
:105078000827074AE35140F6F477BB4218D80123C2
:10508800137000F0E0BF00BFB42200203C2E0020C7
:10509800D03C0020884E0020744D0020B84D0020E0
:1050A800FC4D0020CC4E0020F04E0020D84E0020B1
:1050B8004FF6F477BB4294BF02230323137023787F
:1050C800AD4A032B41F21C230CBFC06A0020D0500C
:1050D800731841F20C222B44A350A84B1B780BB930
:1050E80010F0ECF9A3780133A37089E00323A370CF
:1050F800A34B009305223023A249A3480AF01CFAC7
:105108007EE0A1487AE010F09DFADFF884A2064616
:105118000AF1080B207D10B1012818D0FBE7DAF856
:1051280000209A49023210F05FFD0328F2D801A34B
:1051380053F820F0095200084D51000809520008A0
:10514800F94E000863680133A360012336E0DBF8F9
:105158000030D4F804E04FF0FF325B02B2FBF3F307
:105168008B4A13EB0E0012684FF0000848F100015B
:105178004FF00009494502F1020208BF904238BFCA
:105188000EEB03028349022010F02EFD0328C1D83C
:1051980001A353F820F000BF09520008E34E0008AD
:1051A80009520008E34E00080133B3FBF6F206FB90
:1051B80012320AB133449B1A636000232375A9E7AE
:1051C800A2687249012010F074FC012801D106235D
:1051D800BCE6022814D141F2B4120123A35400F012
:1051E8002FBF0021684810F031FC0128F1D1A378C5
:1051F8000133A370ABE6032300F022BF0AF012F9D3
:10520800654B1B782BB9654B1B681D0301D505F051
:1052180035F8FEF7B9FC624B1B78072B05D10DF06A
:10522800B9FD049BC01A5F4B58805F4B00221A706F
:105238005E4C5D4E636811A89847A146002800F0AF
:105248005F815B4DBDF944302B60BDF946306B6022
:1052580096F82420BDF94830AB602946284607F067
:10526800CFFA544B1A889B4606F1700A002A00F0C0
:10527800CE80514BDFED518A1B681B78002708EE62
:10528800103A06F1280806F1340438464FF47A71CA
:10529800D9F81430B1FBF3F3C3EB431103EB8103EB
:1052A800BBF800E0DB009BB29E4508BFC8F80000D1
:1052B800D8F8003008BF20611A4655F827301A443C
:1052C80055F82730C8F8002007EE903A23690133D3
:1052D800012B4FEA8701F8EEE77A236106D1C4ED86
:1052E800017AC4ED007AC4ED028A1BE0D4ED005ABD
:1052F80007EE103A37EEE56AF8EEC76A86EE267AC8
:10530800D4ED026A37EE257A77EEC77A84ED017A12
:10531800E6EE276A84ED007AF0EE667AC4ED036A59
:10532800C4ED026ABEF1010F68504AF801005BD172
:1053380023690490012BC3BF03F1FF3307EE903AB2
:1053480094ED037A9FED1D0A0391C4BFF8EEE77A46
:1053580087EE270A17F0CCFB0399049818EE103A49
:1053680073B3F8EEC87AF4EEC07AF1EE10FA27D5E6
:1053780007F034FA4BE000BFD03C0020B04E0020CC
:10538800CDEA00083D140208404E0020D43C00201D
:10539800D84E0020D83C0020AC240020AC1A0020B5
:1053A8003A1600203C160020540D0020CC15002091
:1053B800D4160020CA1500208C140020000000001C
:1053C8004FF47A72D9F81430B2FBF3F3C3EB4312FB
:1053D80003EB8203DB00D8F800209BB202EB5302F8
:1053E80092FBF3F24AF801200137032F08F1040871
:1053F80004F114047FF44AAFBBF80000012801D17E
:1054080009F008FBBBF80030013BABF80030002383
:1054180055F823105AF82300B94A091A45F82310F9
:105428000133032BF4D1B74F03973978B64B0029D2
:1054380054D0DFF80093DFF800A31C460027CB46C2
:1054480099F80020032A04BF55F827202AF81720C6
:10545800AE4A1278012A4FEA87080CD155F808306D
:10546800AB4A07EE903A1C20B8EEE70A00FB07208B
:1054780011F0F2FA0FE0039BA64A197855F80830A4
:10548800D6ED340A07EE903A0C20B8EEE70A00FB96
:10549800072011F09BFB84ED000A9BF80020082AE6
:1054A80005D194ED000A17F01FF82AF817009A4A58
:1054B80012884AB1994A94ED000A1C2000FB072083
:1054C80011F0CAFA84ED000AB4EC010A17F00CF8DE
:1054D8000137032F45F80800B2D111E0D2ED007A68
:1054E800F8EEE77AC3ED007AD2ED017AF8EEE77AC2
:1054F800C3ED017AD2ED027AF8EEE77AC3ED027ACB
:1055080096F84C312BB1864A013B82F84C3100F0B9
:10551800A0BD844B93F8DC211C4622B193F8E631F8
:10552800013BDBB200E0012386F84C310DF032FC80
:105538007D4B7E4DD3F800807D4BB4F83212A3F139
:10554800520207462868C0477A4B1A78072A1C4631
:1055580004D10DF01FFC784BC01B98800DF01AFC8D
:1055680094F800A00390BAF1010F0AD17349D6F854
:105578005031714A0968C6F85001C31A93805B1A02
:10558800D3806F4B2A681B68EBB192F83120CAB1FF
:105598006C4A1268940718D56B4A1178012914D9F6
:1055A800DB786A4859430088CB1A98420AB203DB71
:1055B80088420346A8BF0B461BB2120392FBF3F2C4
:1055C800012305E013461A4602E001234FF48052F6
:1055D8005F49C9780B912BB1BDF94C1051430913A0
:1055E800ADF84C105B495C4E91F800805B49DFF8E0
:1055F8004891B1F902000690B1F9000007905848A7
:10560800B1F90410D0F800C00491002529462846B5
:1056180040453DD29CF90040049FD6ED016A96EDC5
:10562800026A64427C4307EE904AB8EEE77ADDED01
:10563800077AF8EEE77A0DF14C0E67EEA67ADDED03
:10564800066AF8EEE66AE6EE867AD6ED036AE7EED3
:10565800267AFDEEE77ACDED057ABDF914400BB157
:10566800544324132EF8104013AC34F910408C42E4
:1056780003DCA542A8BF254600E02146BAF1050F84
:1056880003D1042898BF29F8104001301036BFE72D
:105698002C4B344C1868491B10F4805209B27DD049
:1056A800314B324D1B78DFF878E0314F13F0040F9F
:1056B80001BF2B681E8A1A4BA3F81462B4F906605E
:1056C8002C4C2B6824681B8AE588C5EB030C6645BF
:1056D80008DCB4F900303C68AEF81462B4F9004054
:1056E80035440AE02B449E4246DB3B68B4F902404D
:1056F800B3F90230AEF81462751B2DB256E000BF44
:10570800D4160020901400201818002094140020AB
:10571800D00D0020280E0020921400204C0E0020EE
:10572800540D002030340020F4010020B024002063
:10573800703600203A1600203C160020E41600209F
:1057480014160020AC1A00209405002064160020CE
:10575800B81A0020E3160020A80E00207C170020AD
:10576800B0140020C0160020EC1A0020B414002049
:10577800E8250020E4250020BEF914329C45ABBF83
:10578800B4F900303B683C68B4F90240ABBFB4F9E7
:105798000040B3F902301D46254607E0804BB4F9B6
:1057A80006501B68B3F90040B3F902307D4E9BB236
:1057B800A4B2C4EB030A0FFA8AFA51451ADD4FEA7C
:1057C8000A33002793FBF1F1C6F81812B8450AD935
:1057D80013AB33F917E001FB0EFE4FEA2E3E23F818
:1057E80017E00137F2E702239AFBF3F31C4424B2D3
:1057F800089407E0022791FBF7F15B1A0C441BB2EF
:1058080024B20893B6F91432654E0A933768664E87
:10581800664B36786649DFF8B8E11B680968DFF837
:10582800B49106F00406F6B2059600F01000BEF931
:10583800066009964FF0000B0C90D84559D913A86B
:1058480007EE905A30F81BC05A4800EB0B1090ED49
:10585800007AF8EEE77AA64667EE877AFDEEE77AF1
:1058680017EE900AA04204DB089E8642A8BF0646AF
:10587800B6460CEB0E000B9E00B229F8020F16B1CB
:10588800B7F804E013E082B1B3F810E0B1F806C04D
:105898000A9ECCEB0E0E764504DCB7F800E0B1F8B2
:1058A80000C006E0B1F802E001E0B7F800E0B7F8A0
:1058B80002C0704503DB8445E646A8BF86460C98BF
:1058C800A9F800E090B1059880B17AB90F920E91CD
:1058D8000D9309F079F80D9B0E990F9A30B9588AF3
:1058E800099E8642BCBFB888A9F800000BF1010BDD
:1058F800A3E73C894CB330494FF47A700968B0FB90
:10590800F1F1B4FBF1F1012905D942F2107081429D
:10591800A8BF014600E0022109B28A4515DD274DDE
:1059280020483C8835F918E000EB4807A645B7F948
:105938001C7203DB7C187445A8BF744624B200EBC4
:10594800480025F81840A0F81C42059919B90E46D8
:105958001B481A4906E0134991F83402192800F245
:10596800438107E0B045F6D930F8164021F81640D3
:105978000136F7E7012101FA00F012490140002938
:1059880000F0328110490988C80525D50F4B1A88BF
:10599800ADF864205A88ADF866209B882FE000BFD8
:1059A800E8250020540D0020EC1A0020B414002033
:1059B800E4250020A80E0020E41600200025002081
:1059C8005024002032413003E41A0020C016002081
:1059D80058220020FE240020BDF81C10ADF86410E9
:1059E800BDF81810ADF86610BDF81010ADF86810C5
:1059F8003AB11B8A099A9A4203DA049B5B42ADF8D2
:105A08006830AD48B0F902304FF47A7203F5E163BB
:105A18004FF46161534393FBF1F3A3F5FA73ADF8C7
:105A28007C30B0F9003003F5E1635A43A34B92FB95
:105A3800F1F21B88A3F2DC53ADF86A30A04BA2F553
:105A4800FA72ADF87E201B689E4A1B8A1188C91A13
:105A5800ADF86C105188C91AADF86E109188C91A42
:105A6800ADF87010D188C91AADF872101189C91A29
:105A7800ADF874105189C91AADF876109189D28998
:105A8800C91AD31AADF87A308F4AADF878100023C6
:105A9800194622F813100133082BFAD18B4A8C4B84
:105AA800126804928B4A1B7812688B490592072268
:105AB80002FB0313894DDFF810A208934FF0640826
:105AC8004FF00109089B8B4273D00B782BB115332B
